{
  "contractName": "RBAC",
  "abi": [
    {
      "constant": true,
      "inputs": [],
      "name": "accessCounter",
      "outputs": [
        {
          "name": "",
          "type": "uint256"
        }
      ],
      "payable": false,
      "stateMutability": "view",
      "type": "function"
    },
    {
      "constant": true,
      "inputs": [
        {
          "name": "",
          "type": "uint256"
        }
      ],
      "name": "owners",
      "outputs": [
        {
          "name": "",
          "type": "address"
        }
      ],
      "payable": false,
      "stateMutability": "view",
      "type": "function"
    },
    {
      "constant": false,
      "inputs": [
        {
          "name": "_name",
          "type": "string"
        },
        {
          "name": "_accessIDs",
          "type": "uint256[]"
        }
      ],
      "name": "addRole",
      "outputs": [],
      "payable": false,
      "stateMutability": "nonpayable",
      "type": "function"
    },
    {
      "constant": false,
      "inputs": [
        {
          "name": "_id",
          "type": "uint256"
        }
      ],
      "name": "deleteRole",
      "outputs": [],
      "payable": false,
      "stateMutability": "nonpayable",
      "type": "function"
    },
    {
      "constant": false,
      "inputs": [
        {
          "name": "_addr",
          "type": "address"
        },
        {
          "name": "_managerID",
          "type": "uint256"
        },
        {
          "name": "_firstName",
          "type": "string"
        },
        {
          "name": "_lastName",
          "type": "string"
        },
        {
          "name": "_roleIDs",
          "type": "uint256[]"
        }
      ],
      "name": "addAccountWithPerson",
      "outputs": [],
      "payable": false,
      "stateMutability": "nonpayable",
      "type": "function"
    },
    {
      "constant": true,
      "inputs": [],
      "name": "totalOwners",
      "outputs": [
        {
          "name": "",
          "type": "uint256"
        }
      ],
      "payable": false,
      "stateMutability": "view",
      "type": "function"
    },
    {
      "constant": false,
      "inputs": [
        {
          "name": "_id",
          "type": "uint256"
        }
      ],
      "name": "deleteAccount",
      "outputs": [],
      "payable": false,
      "stateMutability": "nonpayable",
      "type": "function"
    },
    {
      "constant": true,
      "inputs": [
        {
          "name": "_id",
          "type": "uint256"
        }
      ],
      "name": "roleAccessIDs",
      "outputs": [
        {
          "name": "",
          "type": "uint256[]"
        }
      ],
      "payable": false,
      "stateMutability": "view",
      "type": "function"
    },
    {
      "constant": true,
      "inputs": [
        {
          "name": "_id",
          "type": "uint256"
        }
      ],
      "name": "accountRoleIDs",
      "outputs": [
        {
          "name": "",
          "type": "uint256[]"
        }
      ],
      "payable": false,
      "stateMutability": "view",
      "type": "function"
    },
    {
      "constant": false,
      "inputs": [
        {
          "name": "_id",
          "type": "uint256"
        },
        {
          "name": "_managerID",
          "type": "uint256"
        },
        {
          "name": "_roleIDs",
          "type": "uint256[]"
        }
      ],
      "name": "modifyAccount",
      "outputs": [],
      "payable": false,
      "stateMutability": "nonpayable",
      "type": "function"
    },
    {
      "constant": true,
      "inputs": [
        {
          "name": "",
          "type": "uint256"
        }
      ],
      "name": "menus",
      "outputs": [
        {
          "name": "",
          "type": "string"
        }
      ],
      "payable": false,
      "stateMutability": "view",
      "type": "function"
    },
    {
      "constant": false,
      "inputs": [
        {
          "name": "_address",
          "type": "address"
        }
      ],
      "name": "addOwner",
      "outputs": [],
      "payable": false,
      "stateMutability": "nonpayable",
      "type": "function"
    },
    {
      "constant": true,
      "inputs": [],
      "name": "menuCounter",
      "outputs": [
        {
          "name": "",
          "type": "uint256"
        }
      ],
      "payable": false,
      "stateMutability": "view",
      "type": "function"
    },
    {
      "constant": false,
      "inputs": [
        {
          "name": "_index",
          "type": "uint256"
        }
      ],
      "name": "deleteOwner",
      "outputs": [],
      "payable": false,
      "stateMutability": "nonpayable",
      "type": "function"
    },
    {
      "constant": false,
      "inputs": [
        {
          "name": "_code",
          "type": "string"
        },
        {
          "name": "_endpoint",
          "type": "string"
        },
        {
          "name": "_description",
          "type": "string"
        },
        {
          "name": "_menuIDs",
          "type": "uint256[]"
        }
      ],
      "name": "addAccess",
      "outputs": [],
      "payable": false,
      "stateMutability": "nonpayable",
      "type": "function"
    },
    {
      "constant": false,
      "inputs": [
        {
          "name": "_id",
          "type": "uint256"
        },
        {
          "name": "_name",
          "type": "string"
        },
        {
          "name": "_accessIDs",
          "type": "uint256[]"
        }
      ],
      "name": "modifyRole",
      "outputs": [],
      "payable": false,
      "stateMutability": "nonpayable",
      "type": "function"
    },
    {
      "constant": true,
      "inputs": [
        {
          "name": "",
          "type": "uint256"
        }
      ],
      "name": "people",
      "outputs": [
        {
          "name": "firstName",
          "type": "string"
        },
        {
          "name": "lastName",
          "type": "string"
        },
        {
          "name": "isDeleted",
          "type": "bool"
        }
      ],
      "payable": false,
      "stateMutability": "view",
      "type": "function"
    },
    {
      "constant": true,
      "inputs": [],
      "name": "roleCounter",
      "outputs": [
        {
          "name": "",
          "type": "uint256"
        }
      ],
      "payable": false,
      "stateMutability": "view",
      "type": "function"
    },
    {
      "constant": true,
      "inputs": [],
      "name": "accountCounter",
      "outputs": [
        {
          "name": "",
          "type": "uint256"
        }
      ],
      "payable": false,
      "stateMutability": "view",
      "type": "function"
    },
    {
      "constant": false,
      "inputs": [
        {
          "name": "_id",
          "type": "uint256"
        }
      ],
      "name": "deleteAccess",
      "outputs": [],
      "payable": false,
      "stateMutability": "nonpayable",
      "type": "function"
    },
    {
      "constant": true,
      "inputs": [
        {
          "name": "_id",
          "type": "uint256"
        }
      ],
      "name": "accessMenuIDs",
      "outputs": [
        {
          "name": "",
          "type": "uint256[]"
        }
      ],
      "payable": false,
      "stateMutability": "view",
      "type": "function"
    },
    {
      "constant": true,
      "inputs": [
        {
          "name": "",
          "type": "uint256"
        }
      ],
      "name": "roles",
      "outputs": [
        {
          "name": "name",
          "type": "string"
        },
        {
          "name": "isDeleted",
          "type": "bool"
        }
      ],
      "payable": false,
      "stateMutability": "view",
      "type": "function"
    },
    {
      "constant": false,
      "inputs": [
        {
          "name": "_id",
          "type": "uint256"
        },
        {
          "name": "_code",
          "type": "string"
        },
        {
          "name": "_endpint",
          "type": "string"
        },
        {
          "name": "_description",
          "type": "string"
        },
        {
          "name": "_menuIDs",
          "type": "uint256[]"
        }
      ],
      "name": "modifyAccess",
      "outputs": [],
      "payable": false,
      "stateMutability": "nonpayable",
      "type": "function"
    },
    {
      "constant": true,
      "inputs": [],
      "name": "personCounter",
      "outputs": [
        {
          "name": "",
          "type": "uint256"
        }
      ],
      "payable": false,
      "stateMutability": "view",
      "type": "function"
    },
    {
      "constant": true,
      "inputs": [
        {
          "name": "",
          "type": "uint256"
        }
      ],
      "name": "accesses",
      "outputs": [
        {
          "name": "code",
          "type": "string"
        },
        {
          "name": "endpoint",
          "type": "string"
        },
        {
          "name": "description",
          "type": "string"
        },
        {
          "name": "isDeleted",
          "type": "bool"
        }
      ],
      "payable": false,
      "stateMutability": "view",
      "type": "function"
    },
    {
      "constant": true,
      "inputs": [
        {
          "name": "",
          "type": "uint256"
        }
      ],
      "name": "accounts",
      "outputs": [
        {
          "name": "addr",
          "type": "address"
        },
        {
          "name": "personID",
          "type": "uint256"
        },
        {
          "name": "managerID",
          "type": "uint256"
        },
        {
          "name": "isDeleted",
          "type": "bool"
        }
      ],
      "payable": false,
      "stateMutability": "view",
      "type": "function"
    },
    {
      "constant": false,
      "inputs": [
        {
          "name": "_id",
          "type": "uint256"
        },
        {
          "name": "_firstName",
          "type": "string"
        },
        {
          "name": "_lastName",
          "type": "string"
        }
      ],
      "name": "modifyPerson",
      "outputs": [],
      "payable": false,
      "stateMutability": "nonpayable",
      "type": "function"
    },
    {
      "inputs": [],
      "payable": false,
      "stateMutability": "nonpayable",
      "type": "constructor"
    }
  ],
  "bytecode": "0x60606040526000600155600060035560006005556000600755600060095534156200002957600080fd5b600a80548060010182816200003f9190620003f2565b9160005260206000209001600033909190916101000a81548173ffffffffffffffffffffffffffffffffffffffff021916908373ffffffffffffffffffffffffffffffffffffffff160217905550506040805190810160405280600381526020017f416c6c00000000000000000000000000000000000000000000000000000000008152506000808081526020019081526020016000209080519060200190620000eb92919062000421565b506040805190810160405280600481526020017f486f6d65000000000000000000000000000000000000000000000000000000008152506000806001815260200190815260200160002090805190602001906200014a92919062000421565b506040805190810160405280600681526020017f4163636573730000000000000000000000000000000000000000000000000000815250600080600281526020019081526020016000209080519060200190620001a992919062000421565b506040805190810160405280600481526020017f526f6c65000000000000000000000000000000000000000000000000000000008152506000806003815260200190815260200160002090805190602001906200020892919062000421565b506040805190810160405280600781526020017f4163636f756e74000000000000000000000000000000000000000000000000008152506000806004815260200190815260200160002090805190602001906200026792919062000421565b506040805190810160405280600a81526020017f54656d7041636365737300000000000000000000000000000000000000000000815250600080600581526020019081526020016000209080519060200190620002c692919062000421565b506040805190810160405280600481526020017f57696b69000000000000000000000000000000000000000000000000000000008152506000806006815260200190815260200160002090805190602001906200032592919062000421565b506040805190810160405280600481526020017f4a697261000000000000000000000000000000000000000000000000000000008152506000806007815260200190815260200160002090805190602001906200038492919062000421565b506040805190810160405280600a81526020017f5368617265506f696e7400000000000000000000000000000000000000000000815250600080600881526020019081526020016000209080519060200190620003e392919062000421565b506008600181905550620004d0565b8154818355818115116200041c578183600052602060002091820191016200041b9190620004a8565b5b505050565b828054600181600116156101000203166002900490600052602060002090601f016020900481019282601f106200046457805160ff191683800117855562000495565b8280016001018555821562000495579182015b828111156200049457825182559160200191906001019062000477565b5b509050620004a49190620004a8565b5090565b620004cd91905b80821115620004c9576000816000905550600101620004af565b5090565b90565b6126fb80620004e06000396000f30060606040526004361061015f576000357c0100000000000000000000000000000000000000000000000000000000900463ffffffff1680630224c38414610164578063025e7c271461018d578063052ffdf4146101f057806315b598891461028d578063237f647d146102b0578063243669ad146103b85780632fb1271d146103e15780633e8a29e3146104045780634f0182221461047c57806360c6b671146104f45780636fe66b03146105605780637065cb48146105fc57806372b8f6ec14610635578063780dd0cf1461065e5780637f2fee1e146106815780639c972ed4146107a45780639e7a13ad1461084a578063a1f80dbb14610997578063a6e79975146109c0578063b3a18a98146109e9578063bdc50e8114610a0c578063bfda4a4914610a84578063c490809614610b48578063c621d88e14610c74578063cfddd0a914610c9d578063f2a40db814610e73578063f80192f614610eef575b600080fd5b341561016f57600080fd5b610177610f98565b6040518082815260200191505060405180910390f35b341561019857600080fd5b6101ae6004808035906020019091905050610f9e565b604051808273ffffffffffffffffffffffffffffffffffffffff1673ffffffffffffffffffffffffffffffffffffffff16815260200191505060405180910390f35b34156101fb57600080fd5b61028b600480803590602001908201803590602001908080601f0160208091040260200160405190810160405280939291908181526020018383808284378201915050505050509190803590602001908201803590602001908080602002602001604051908101604052809392919081815260200183836020028082843782019150505050505091905050610fdd565b005b341561029857600080fd5b6102ae600480803590602001909190505061113b565b005b34156102bb57600080fd5b6103b6600480803573ffffffffffffffffffffffffffffffffffffffff1690602001909190803590602001909190803590602001908201803590602001908080601f0160208091040260200160405190810160405280939291908181526020018383808284378201915050505050509190803590602001908201803590602001908080601f0160208091040260200160405190810160405280939291908181526020018383808284378201915050505050509190803590602001908201803590602001908080602002602001604051908101604052809392919081815260200183836020028082843782019150505050505091905050611229565b005b34156103c357600080fd5b6103cb6114a0565b6040518082815260200191505060405180910390f35b34156103ec57600080fd5b61040260048080359060200190919050506114ad565b005b341561040f57600080fd5b61042560048080359060200190919050506115e0565b6040518080602001828103825283818151815260200191508051906020019060200280838360005b8381101561046857808201518184015260208101905061044d565b505050509050019250505060405180910390f35b341561048757600080fd5b61049d6004808035906020019091905050611665565b6040518080602001828103825283818151815260200191508051906020019060200280838360005b838110156104e05780820151818401526020810190506104c5565b505050509050019250505060405180910390f35b34156104ff57600080fd5b61055e6004808035906020019091908035906020019091908035906020019082018035906020019080806020026020016040519081016040528093929190818152602001838360200280828437820191505050505050919050506116ea565b005b341561056b57600080fd5b6105816004808035906020019091905050611801565b6040518080602001828103825283818151815260200191508051906020019080838360005b838110156105c15780820151818401526020810190506105a6565b50505050905090810190601f1680156105ee5780820380516001836020036101000a031916815260200191505b509250505060405180910390f35b341561060757600080fd5b610633600480803573ffffffffffffffffffffffffffffffffffffffff169060200190919050506118b1565b005b341561064057600080fd5b6106486119c2565b6040518082815260200191505060405180910390f35b341561066957600080fd5b61067f60048080359060200190919050506119c8565b005b341561068c57600080fd5b6107a2600480803590602001908201803590602001908080601f0160208091040260200160405190810160405280939291908181526020018383808284378201915050505050509190803590602001908201803590602001908080601f0160208091040260200160405190810160405280939291908181526020018383808284378201915050505050509190803590602001908201803590602001908080601f0160208091040260200160405190810160405280939291908181526020018383808284378201915050505050509190803590602001908201803590602001908080602002602001604051908101604052809392919081815260200183836020028082843782019150505050505091905050611c17565b005b34156107af57600080fd5b610848600480803590602001909190803590602001908201803590602001908080601f0160208091040260200160405190810160405280939291908181526020018383808284378201915050505050509190803590602001908201803590602001908080602002602001604051908101604052809392919081815260200183836020028082843782019150505050505091905050611dbd565b005b341561085557600080fd5b61086b6004808035906020019091905050611ed3565b604051808060200180602001841515151581526020018381038352868181546001816001161561010002031660029004815260200191508054600181600116156101000203166002900480156109025780601f106108d757610100808354040283529160200191610902565b820191906000526020600020905b8154815290600101906020018083116108e557829003601f168201915b50508381038252858181546001816001161561010002031660029004815260200191508054600181600116156101000203166002900480156109855780601f1061095a57610100808354040283529160200191610985565b820191906000526020600020905b81548152906001019060200180831161096857829003601f168201915b50509550505050505060405180910390f35b34156109a257600080fd5b6109aa611f08565b6040518082815260200191505060405180910390f35b34156109cb57600080fd5b6109d3611f0e565b6040518082815260200191505060405180910390f35b34156109f457600080fd5b610a0a6004808035906020019091905050611f14565b005b3415610a1757600080fd5b610a2d6004808035906020019091905050612002565b6040518080602001828103825283818151815260200191508051906020019060200280838360005b83811015610a70578082015181840152602081019050610a55565b505050509050019250505060405180910390f35b3415610a8f57600080fd5b610aa56004808035906020019091905050612087565b604051808060200183151515158152602001828103825284818154600181600116156101000203166002900481526020019150805460018160011615610100020316600290048015610b385780601f10610b0d57610100808354040283529160200191610b38565b820191906000526020600020905b815481529060010190602001808311610b1b57829003601f168201915b5050935050505060405180910390f35b3415610b5357600080fd5b610c72600480803590602001909190803590602001908201803590602001908080601f0160208091040260200160405190810160405280939291908181526020018383808284378201915050505050509190803590602001908201803590602001908080601f0160208091040260200160405190810160405280939291908181526020018383808284378201915050505050509190803590602001908201803590602001908080601f01602080910402602001604051908101604052809392919081815260200183838082843782019150505050505091908035906020019082018035906020019080806020026020016040519081016040528093929190818152602001838360200280828437820191505050505050919050506120b7565b005b3415610c7f57600080fd5b610c87612201565b6040518082815260200191505060405180910390f35b3415610ca857600080fd5b610cbe6004808035906020019091905050612207565b6040518080602001806020018060200185151515158152602001848103845288818154600181600116156101000203166002900481526020019150805460018160011615610100020316600290048015610d595780601f10610d2e57610100808354040283529160200191610d59565b820191906000526020600020905b815481529060010190602001808311610d3c57829003601f168201915b5050848103835287818154600181600116156101000203166002900481526020019150805460018160011615610100020316600290048015610ddc5780601f10610db157610100808354040283529160200191610ddc565b820191906000526020600020905b815481529060010190602001808311610dbf57829003601f168201915b5050848103825286818154600181600116156101000203166002900481526020019150805460018160011615610100020316600290048015610e5f5780601f10610e3457610100808354040283529160200191610e5f565b820191906000526020600020905b815481529060010190602001808311610e4257829003601f168201915b505097505050505050505060405180910390f35b3415610e7e57600080fd5b610e946004808035906020019091905050612241565b604051808573ffffffffffffffffffffffffffffffffffffffff1673ffffffffffffffffffffffffffffffffffffffff1681526020018481526020018381526020018215151515815260200194505050505060405180910390f35b3415610efa57600080fd5b610f96600480803590602001909190803590602001908201803590602001908080601f0160208091040260200160405190810160405280939291908181526020018383808284378201915050505050509190803590602001908201803590602001908080601f0160208091040260200160405190810160405280939291908181526020018383808284378201915050505050509190505061229e565b005b60055481565b600a81815481101515610fad57fe5b90600052602060002090016000915054906101000a900473ffffffffffffffffffffffffffffffffffffffff1681565b60008060009150600090505b600a8054905081101561107a573373ffffffffffffffffffffffffffffffffffffffff16600a8281548110151561101c57fe5b906000526020600020900160009054906101000a900473ffffffffffffffffffffffffffffffffffffffff1673ffffffffffffffffffffffffffffffffffffffff16141561106d576001915061107a565b8080600101915050610fe9565b81151561108657600080fd5b611092836005546123a8565b6007600081548092919060010191905055506060604051908101604052808581526020016000151581526020018481525060066000600754815260200190815260200160002060008201518160000190805190602001906110f49291906123ef565b5060208201518160010160006101000a81548160ff021916908315150217905550604082015181600201908051906020019061113192919061246f565b5090505050505050565b60008060009150600090505b600a805490508110156111d8573373ffffffffffffffffffffffffffffffffffffffff16600a8281548110151561117a57fe5b906000526020600020900160009054906101000a900473ffffffffffffffffffffffffffffffffffffffff1673ffffffffffffffffffffffffffffffffffffffff1614156111cb57600191506111d8565b8080600101915050611147565b8115156111e457600080fd5b60075483111515156111f557600080fd5b60016006600085815260200190815260200160002060010160006101000a81548160ff021916908315150217905550505050565b60008060009150600090505b600a805490508110156112c6573373ffffffffffffffffffffffffffffffffffffffff16600a8281548110151561126857fe5b906000526020600020900160009054906101000a900473ffffffffffffffffffffffffffffffffffffffff1673ffffffffffffffffffffffffffffffffffffffff1614156112b957600191506112c6565b8080600101915050611235565b8115156112d257600080fd5b60035486111515156112e357600080fd5b6112ef836007546123a8565b6009600081548092919060010191905055506060604051908101604052808681526020018581526020016000151581525060086000600954815260200190815260200160002060008201518160000190805190602001906113519291906123ef565b50602082015181600101908051906020019061136e9291906123ef565b5060408201518160020160006101000a81548160ff02191690831515021790555090505060036000815480929190600101919050555060a0604051908101604052808873ffffffffffffffffffffffffffffffffffffffff16815260200160095481526020018781526020016000151581526020018481525060026000600354815260200190815260200160002060008201518160000160006101000a81548173ffffffffffffffffffffffffffffffffffffffff021916908373ffffffffffffffffffffffffffffffffffffffff160217905550602082015181600101556040820151816002015560608201518160030160006101000a81548160ff021916908315150217905550608082015181600401908051906020019061149392919061246f565b5090505050505050505050565b6000600a80549050905090565b60008060009150600090505b600a8054905081101561154a573373ffffffffffffffffffffffffffffffffffffffff16600a828154811015156114ec57fe5b906000526020600020900160009054906101000a900473ffffffffffffffffffffffffffffffffffffffff1673ffffffffffffffffffffffffffffffffffffffff16141561153d576001915061154a565b80806001019150506114b9565b81151561155657600080fd5b600354831115151561156757600080fd5b60016002600085815260200190815260200160002060030160006101000a81548160ff0219169083151502179055506001600860006002600087815260200190815260200160002060010154815260200190815260200160002060020160006101000a81548160ff021916908315150217905550505050565b6115e86124bc565b60075482111515156115f957600080fd5b6006600083815260200190815260200160002060020180548060200260200160405190810160405280929190818152602001828054801561165957602002820191906000526020600020905b815481526020019060010190808311611645575b50505050509050919050565b61166d6124bc565b600554821115151561167e57600080fd5b600260008381526020019081526020016000206004018054806020026020016040519081016040528092919081815260200182805480156116de57602002820191906000526020600020905b8154815260200190600101908083116116ca575b50505050509050919050565b6000806000809150600090505b600a80549050811015611788573373ffffffffffffffffffffffffffffffffffffffff16600a8281548110151561172a57fe5b906000526020600020900160009054906101000a900473ffffffffffffffffffffffffffffffffffffffff1673ffffffffffffffffffffffffffffffffffffffff16141561177b5760019150611788565b80806001019150506116f7565b81151561179457600080fd5b60035486111515156117a557600080fd5b60035485111515156117b657600080fd5b6117c2846007546123a8565b600260008781526020019081526020016000209250848360020181905550838360040190805190602001906117f89291906124d0565b50505050505050565b60006020528060005260406000206000915090508054600181600116156101000203166002900480601f0160208091040260200160405190810160405280929190818152602001828054600181600116156101000203166002900480156118a95780601f1061187e576101008083540402835291602001916118a9565b820191906000526020600020905b81548152906001019060200180831161188c57829003601f168201915b505050505081565b60008060009150600090505b600a8054905081101561194e573373ffffffffffffffffffffffffffffffffffffffff16600a828154811015156118f057fe5b906000526020600020900160009054906101000a900473ffffffffffffffffffffffffffffffffffffffff1673ffffffffffffffffffffffffffffffffffffffff161415611941576001915061194e565b80806001019150506118bd565b81151561195a57600080fd5b600a805480600101828161196e919061251d565b9160005260206000209001600085909190916101000a81548173ffffffffffffffffffffffffffffffffffffffff021916908373ffffffffffffffffffffffffffffffffffffffff16021790555050505050565b60015481565b6119d0612549565b6000806000809150600090505b600a80549050811015611a6e573373ffffffffffffffffffffffffffffffffffffffff16600a82815481101515611a1057fe5b906000526020600020900160009054906101000a900473ffffffffffffffffffffffffffffffffffffffff1673ffffffffffffffffffffffffffffffffffffffff161415611a615760019150611a6e565b80806001019150506119dd565b811515611a7a57600080fd5b600a8054905085101515611a8d57600080fd5b6001600a8054905003604051805910611aa35750595b90808252806020026020018201604052509350600092505b600a80549050831015611bf95784831015611b5a57600a83815481101515611adf57fe5b906000526020600020900160009054906101000a900473ffffffffffffffffffffffffffffffffffffffff168484815181101515611b1957fe5b9060200190602002019073ffffffffffffffffffffffffffffffffffffffff16908173ffffffffffffffffffffffffffffffffffffffff1681525050611bec565b84831115611beb57600a83815481101515611b7157fe5b906000526020600020900160009054906101000a900473ffffffffffffffffffffffffffffffffffffffff168460018503815181101515611bae57fe5b9060200190602002019073ffffffffffffffffffffffffffffffffffffffff16908173ffffffffffffffffffffffffffffffffffffffff16815250505b5b8280600101935050611abb565b83600a9080519060200190611c0f92919061255d565b505050505050565b60008060009150600090505b600a80549050811015611cb4573373ffffffffffffffffffffffffffffffffffffffff16600a82815481101515611c5657fe5b906000526020600020900160009054906101000a900473ffffffffffffffffffffffffffffffffffffffff1673ffffffffffffffffffffffffffffffffffffffff161415611ca75760019150611cb4565b8080600101915050611c23565b811515611cc057600080fd5b611ccc836001546123a8565b60056000815480929190600101919050555060a060405190810160405280878152602001868152602001858152602001600015158152602001848152506004600060055481526020019081526020016000206000820151816000019080519060200190611d3a9291906123ef565b506020820151816001019080519060200190611d579291906123ef565b506040820151816002019080519060200190611d749291906123ef565b5060608201518160030160006101000a81548160ff0219169083151502179055506080820151816004019080519060200190611db192919061246f565b50905050505050505050565b6000806000809150600090505b600a80549050811015611e5b573373ffffffffffffffffffffffffffffffffffffffff16600a82815481101515611dfd57fe5b906000526020600020900160009054906101000a900473ffffffffffffffffffffffffffffffffffffffff1673ffffffffffffffffffffffffffffffffffffffff161415611e4e5760019150611e5b565b8080600101915050611dca565b811515611e6757600080fd5b6007548611151515611e7857600080fd5b611e84846005546123a8565b60066000878152602001908152602001600020925084836000019080519060200190611eb19291906125e7565b5083836002019080519060200190611eca9291906124d0565b50505050505050565b6008602052806000526040600020600091509050806000019080600101908060020160009054906101000a900460ff16905083565b60075481565b60035481565b60008060009150600090505b600a80549050811015611fb1573373ffffffffffffffffffffffffffffffffffffffff16600a82815481101515611f5357fe5b906000526020600020900160009054906101000a900473ffffffffffffffffffffffffffffffffffffffff1673ffffffffffffffffffffffffffffffffffffffff161415611fa45760019150611fb1565b8080600101915050611f20565b811515611fbd57600080fd5b6005548311151515611fce57600080fd5b60016004600085815260200190815260200160002060030160006101000a81548160ff021916908315150217905550505050565b61200a6124bc565b600554821115151561201b57600080fd5b6004600083815260200190815260200160002060040180548060200260200160405190810160405280929190818152602001828054801561207b57602002820191906000526020600020905b815481526020019060010190808311612067575b50505050509050919050565b600660205280600052604060002060009150905080600001908060010160009054906101000a900460ff16905082565b6000806000809150600090505b600a80549050811015612155573373ffffffffffffffffffffffffffffffffffffffff16600a828154811015156120f757fe5b906000526020600020900160009054906101000a900473ffffffffffffffffffffffffffffffffffffffff1673ffffffffffffffffffffffffffffffffffffffff1614156121485760019150612155565b80806001019150506120c4565b81151561216157600080fd5b600554881115151561217257600080fd5b61217e846001546123a8565b600460008981526020019081526020016000209250868360000190805190602001906121ab9291906125e7565b50858360010190805190602001906121c49291906125e7565b50838360040190805190602001906121dd9291906124d0565b50848360020190805190602001906121f69291906125e7565b505050505050505050565b60095481565b60046020528060005260406000206000915090508060000190806001019080600201908060030160009054906101000a900460ff16905084565b60026020528060005260406000206000915090508060000160009054906101000a900473ffffffffffffffffffffffffffffffffffffffff16908060010154908060020154908060030160009054906101000a900460ff16905084565b6000806000809150600090505b600a8054905081101561233c573373ffffffffffffffffffffffffffffffffffffffff16600a828154811015156122de57fe5b906000526020600020900160009054906101000a900473ffffffffffffffffffffffffffffffffffffffff1673ffffffffffffffffffffffffffffffffffffffff16141561232f576001915061233c565b80806001019150506122ab565b81151561234857600080fd5b600954861115151561235957600080fd5b600860008781526020019081526020016000209250848360000190805190602001906123869291906125e7565b508383600101908051906020019061239f9291906125e7565b50505050505050565b60008090505b82518110156123ea578183828151811015156123c657fe5b90602001906020020151111515156123dd57600080fd5b80806001019150506123ae565b505050565b828054600181600116156101000203166002900490600052602060002090601f016020900481019282601f1061243057805160ff191683800117855561245e565b8280016001018555821561245e579182015b8281111561245d578251825591602001919060010190612442565b5b50905061246b9190612667565b5090565b8280548282559060005260206000209081019282156124ab579160200282015b828111156124aa57825182559160200191906001019061248f565b5b5090506124b89190612667565b5090565b602060405190810160405280600081525090565b82805482825590600052602060002090810192821561250c579160200282015b8281111561250b5782518255916020019190600101906124f0565b5b5090506125199190612667565b5090565b815481835581811511612544578183600052602060002091820191016125439190612667565b5b505050565b602060405190810160405280600081525090565b8280548282559060005260206000209081019282156125d6579160200282015b828111156125d55782518260006101000a81548173ffffffffffffffffffffffffffffffffffffffff021916908373ffffffffffffffffffffffffffffffffffffffff1602179055509160200191906001019061257d565b5b5090506125e3919061268c565b5090565b828054600181600116156101000203166002900490600052602060002090601f016020900481019282601f1061262857805160ff1916838001178555612656565b82800160010185558215612656579182015b8281111561265557825182559160200191906001019061263a565b5b5090506126639190612667565b5090565b61268991905b8082111561268557600081600090555060010161266d565b5090565b90565b6126cc91905b808211156126c857600081816101000a81549073ffffffffffffffffffffffffffffffffffffffff021916905550600101612692565b5090565b905600a165627a7a723058205f4da9f9a1c31926f1c30a91e7325ec419cc4f749f60a9e778aa2b67149c3f9f0029",
  "source": "pragma solidity ^0.4.18;\n\ncontract RBAC {\n    struct Access {\n        string code;\n        string endpoint;\n        string description;\n        bool isDeleted;\n        uint[] menuIDs;\n    }\n\n    struct Role {\n        string name;\n        bool isDeleted;\n        uint[] accessIDs;\n    }\n\n    struct Account {\n        address addr;\n        uint personID;\n        uint managerID;\n        bool isDeleted;\n        uint[] roleIDs;\n    }\n\n    struct Person {\n        string firstName;\n        string lastName;\n        bool isDeleted;\n    }\n\n    mapping (uint=>string) public menus;\n    uint public menuCounter = 0;\n\n    mapping (uint=>Account) public accounts;\n    uint public accountCounter = 0;\n\n    mapping (uint=>Access) public accesses;\n    uint public accessCounter = 0;\n\n    mapping (uint=>Role) public roles;\n    uint public roleCounter = 0;\n\n    mapping (uint=>Person) public people;\n    uint public personCounter = 0;\n\n    address[] public owners;\n\n    function RBAC() public {\n        owners.push(msg.sender);\n        menus[0] = \"All\";\n        menus[1] = \"Home\";\n        menus[2] = \"Access\";\n        menus[3] = \"Role\";\n        menus[4] = \"Account\";\n        menus[5] = \"TempAccess\";\n        menus[6] = \"Wiki\";\n        menus[7] = \"Jira\";\n        menus[8] = \"SharePoint\";\n        menuCounter = 8;\n    }\n\n    function totalOwners() view public returns (uint) {\n        return owners.length;\n    }\n\n    modifier ownerOnly() {\n        bool isOwner = false;\n        for (uint i = 0; i < owners.length; i++) {\n            if (owners[i] == msg.sender) {\n                isOwner = true;\n                break;\n            }\n        }\n        require(isOwner);\n        _;\n    }\n\n    function deleteOwner(uint _index) ownerOnly public {\n        require(_index < owners.length);\n\n        address[] memory newowners = new address[](owners.length - 1);\n        for (uint i = 0; i < owners.length; i++) {\n            if (i < _index) {\n                newowners[i] = owners[i];\n            } else if (i > _index) {\n                newowners[i - 1] = owners[i];\n            }\n        }\n        owners = newowners;\n    }\n\n    function addOwner(address _address) ownerOnly public {\n        owners.push(_address);\n    }\n\n    function validIDs(uint[] _ids, uint counter) internal pure {\n        for (uint i = 0; i < _ids.length; i++) {\n            require(_ids[i] <= counter);\n        }\n    }\n\n    function addAccess(string _code, string _endpoint, string _description, uint[] _menuIDs) ownerOnly public {\n        validIDs(_menuIDs, menuCounter);\n\n        accessCounter++;\n        accesses[accessCounter] = Access(\n            _code,\n            _endpoint,\n            _description,\n            false,\n            _menuIDs\n        );\n    }\n\n    function modifyAccess(uint _id, string _code, string _endpint, string _description, uint[] _menuIDs) ownerOnly public {\n        require(_id <= accessCounter);\n        validIDs(_menuIDs, menuCounter);\n\n        Access storage access = accesses[_id];\n        access.code = _code;\n        access.endpoint = _endpint;\n        access.menuIDs = _menuIDs;\n        access.description = _description;\n    }\n\n    function deleteAccess(uint _id) ownerOnly public {\n        require(_id <= accessCounter);\n        accesses[_id].isDeleted = true;\n    }\n\n    function accessMenuIDs(uint _id) view public returns (uint[]) {\n        require(_id <= accessCounter);\n        return accesses[_id].menuIDs;\n    }\n\n    function addRole(string _name, uint[] _accessIDs) ownerOnly public {\n        validIDs(_accessIDs, accessCounter);\n\n        roleCounter++;\n        roles[roleCounter] = Role(\n            _name,\n            false,\n            _accessIDs\n        );\n    }\n\n    function modifyRole(uint _id, string _name, uint[] _accessIDs) ownerOnly public {\n        require(_id <= roleCounter);\n        validIDs(_accessIDs, accessCounter);\n        \n        Role storage role = roles[_id];\n        role.name = _name;\n        role.accessIDs = _accessIDs;\n    }\n    \n    function deleteRole(uint _id) ownerOnly public {\n        require(_id <= roleCounter);\n        roles[_id].isDeleted = true;\n    }\n\n    function roleAccessIDs(uint _id) view public returns (uint[]) {\n        require(_id <= roleCounter);\n\n        return roles[_id].accessIDs;\n    }\n\n    function addAccountWithPerson(address _addr, uint _managerID, string _firstName, string _lastName, uint[] _roleIDs) ownerOnly public {\n        require(_managerID <= accountCounter);\n        validIDs(_roleIDs, roleCounter);\n\n        personCounter++;\n        people[personCounter] = Person(\n            _firstName,\n            _lastName,\n            false\n        );\n\n        accountCounter++;\n        accounts[accountCounter] = Account(\n            _addr,\n            personCounter,\n            _managerID,\n            false,\n            _roleIDs\n        );\n    }\n\n    function modifyAccount(uint _id, uint _managerID, uint[] _roleIDs) ownerOnly public {\n        require(_id <= accountCounter);\n        require(_managerID <= accountCounter);\n        validIDs(_roleIDs, roleCounter);\n\n        Account storage account = accounts[_id];\n        account.managerID = _managerID;\n        account.roleIDs = _roleIDs;\n    }\n\n    function modifyPerson(uint _id, string _firstName, string _lastName) ownerOnly public {\n        require(_id <= personCounter);\n\n        Person storage person = people[_id];\n        person.firstName = _firstName;\n        person.lastName = _lastName;\n    }\n\n    function deleteAccount(uint _id) ownerOnly public {\n        require(_id <= accountCounter);\n\n        accounts[_id].isDeleted = true;\n        people[accounts[_id].personID].isDeleted = true;\n    }\n\n    function accountRoleIDs(uint _id) public view returns(uint[]) {\n        require(_id <= accessCounter);\n\n        return accounts[_id].roleIDs;\n    }\n}",
  "sourcePath": "/Users/hezj/INFO7510/Homework/meteor-rbac/imports/truffle/contracts/RBAC.sol",
  "compiler": {
    "name": "solc",
    "version": "0.4.18+commit.9cf6e910.Emscripten.clang"
  },
  "schemaVersion": "1.0.1",
  "updatedAt": "2018-02-02T20:52:38.544Z"
}